:020000040800F2
:100000000000022071440008A13A0008A93A000843
:10001000B13A0008B93A0008C13A000800000000EF
:1000200000000000000000000000000071CA00088D
:10003000C93A000800000000C1CC0008D73A000807
:10004000C1440008F13A0008C1440008C144000856
:10005000C1440008C1440008C1440008C14400086C
:10006000C1440008C1440008FD3A0008C14400082A
:10007000C1440008C1440008C1440008C14400084C
:100080000D3B0008C1440008213B0008C1440008A2
:10009000C1440008C1440008C1440008353B0008C1
:1000A000513B0008C1440008C1440008C144000895
:1000B000653B0008793B00088D3B0008A13B000828
:1000C000B53B0008C1440008C1440008C144000811
:1000D000C1440008C1440008C93B0008C1440008ED
:1000E000DD3B0008C1440008C1440008C1440008C9
:1000F000C1440008C1440008C1440008C1440008CC
:10010000C1440008C1440008FD3B0008C144000888
:10011000C1440008C1440008113C0008C144000863
:10012000253C0008C1440008C1440008C14400083F
:10013000C1440008C1440008C1440008C14400088B
:10014000C1440008C1440008C1440008C14400087B
:10015000C1440008C1440008C1440008C14400086B
:10016000C1440008C1440008C1440008C14400085B
:10017000C1440008C1440008C14400080000000058
:08018000C1440008C14400085D
:1001900010B5054C237833B9044B13B10448AFF3C1
:1001A00000800123237010BD900200200000000099
:1001B0005032010808B5034B1BB103490348AFF3A4
:1001C000008008BD000000009402002050320108A9
:1001D00010F8012B11F8013B012A28BF9A42F7D0F1
:1001E000D01A70470000000000000000000000006E
:1001F00001F0FF01102A2BDB10F0070F08D010F8D8
:10020000013B013A8B422DD010F0070F42B3F6D1DB
:10021000F0B441EA012141EA014122F007047FF0F4
:1002200000070023F0E80256083C85EA010586EA4B
:10023000010685FA47F5A3FA87F586FA47F6A5FA87
:1002400087F68EB9EED1F0BC01F0FF0102F0070293
:1002500032B110F8013B013A83EA010313B1F8D13E
:100260000020704701387047002D06BF354603381F
:10027000073815F0010F07D1013015F4807F02BF58
:10028000013015F4C03F0130F0BC0138704700BFA9
:10029000034613F8012B002AFBD1181A01387047C6
:1002A00081F0004102E000BF83F0004330B54FEA27
:1002B00041044FEA430594EA050F08BF90EA020F94
:1002C0001FBF54EA000C55EA020C7FEA645C7FEA27
:1002D000655C00F0E2804FEA5454D4EB5555B8BF4A
:1002E0006D420CDD2C4480EA020281EA030382EABB
:1002F000000083EA010180EA020281EA0303362D4D
:1003000088BF30BD11F0004F4FEA01314FF4801C1F
:100310004CEA113102D0404261EB410113F0004F31
:100320004FEA03334CEA133302D0524263EB4303E8
:1003300094EA050F00F0A780A4F10104D5F1200E86
:100340000DDB02FA0EFC22FA05F2801841F10001E1
:1003500003FA0EF2801843FA05F359410EE0A5F1B5
:1003600020050EF1200E012A03FA0EFC28BF4CF0E6
:10037000020C43FA05F3C01851EBE37101F000459C
:1003800007D54FF0000EDCF1000C7EEB00006EEBA9
:100390000101B1F5801F1BD3B1F5001F0CD3490833
:1003A0005FEA30004FEA3C0C04F101044FEA44528A
:1003B00012F5800F80F09A80BCF1004F08BF5FEA11
:1003C000500C50F1000041EB045141EA050130BDF1
:1003D0005FEA4C0C404141EB0101013C28BFB1F503
:1003E000801FE9D291F0000F04BF01460020B1FA4E
:1003F00081F308BF2033A3F10B03B3F120020CDA21
:100400000C3208DD02F1140CC2F10C0201FA0CF0FE
:1004100021FA02F10CE002F11402D8BFC2F1200C63
:1004200001FA02F120FA0CFCDCBF41EA0C01904019
:10043000E41AA2BF01EB0451294330BD6FEA040462
:100440001F3C1CDA0C340EDC04F11404C4F120024D
:1004500020FA04F001FA02F340EA030021FA04F35F
:1004600045EA030130BDC4F10C04C4F1200220FAB6
:1004700002F001FA04F340EA0300294630BD21FAF4
:1004800004F0294630BD94F0000F83F4801306BFBA
:1004900081F480110134013D4EE77FEA645C18BFAE
:1004A0007FEA655C29D094EA050F08BF90EA020F45
:1004B00005D054EA000C04BF1946104630BD91EA3D
:1004C000030F1EBF0021002030BD5FEA545C05D140
:1004D0004000494128BF41F0004130BD14F580047F
:1004E0003CBF01F5801130BD01F0004545F0FE41F3
:1004F00041F470014FF0000030BD7FEA645C1ABF28
:10050000194610467FEA655C1CBF0B46024650EA5E
:10051000013406BF52EA033591EA030F41F400218A
:1005200030BD00BF90F0000F04BF0021704730B510
:100530004FF4806404F132044FF000054FF00001E5
:1005400050E700BF90F0000F04BF0021704730B5A6
:100550004FF4806404F1320410F0004548BF40427B
:100560004FF000013EE700BF42004FEAE2014FEAD0
:1005700031014FEA02701FBF12F07F4393F07F4FAB
:1005800081F06051704732F07F4208BF704793F0AE
:100590007F4F04BF41F40021704730B54FF46074C1
:1005A00001F0004521F000411CE700BF50EA0102C4
:1005B00008BF704730B54FF000050AE050EA01026D
:1005C00008BF704730B511F0004502D5404261EBDD
:1005D00041014FF4806404F132045FEA915C3FF41E
:1005E000D8AE4FF003025FEADC0C18BF03325FEABB
:1005F000DC0C18BF033202EBDC02C2F1200300FA6C
:1006000003FC20FA02F001FA03FE40EA0E0021FA90
:1006100002F11444BDE600BF70B54FF0FF0C4CF47E
:10062000E06C1CEA11541DBF1CEA135594EA0C0F30
:1006300095EA0C0F00F0DEF82C4481EA030621EA6B
:100640004C5123EA4C5350EA013518BF52EA0335A6
:1006500041F4801143F4801338D0A0FB02CE4FF058
:100660000005E1FB02E506F00042E0FB03E54FF088
:100670000006E1FB03569CF0000F18BF4EF0010E80
:10068000A4F1FF04B6F5007F64F5407404D25FEA7C
:100690004E0E6D4146EB060642EAC62141EA55512F
:1006A0004FEAC52040EA5E504FEACE2EB4F1FD0C71
:1006B00088BFBCF5E06F1ED8BEF1004F08BF5FEAEF
:1006C000500E50F1000041EB045170BD06F00046A1
:1006D00046EA010140EA020081EA0301B4EB5C044E
:1006E000C2BFD4EB0C0541EA045170BD41F4801146
:1006F0004FF0000E013C00F3AB8014F1360FDEBF6B
:10070000002001F0004170BDC4F10004203C35DA46
:100710000C341BDC04F11404C4F1200500FA05F3C9
:1007200020FA04F001FA05F240EA020001F000426A
:1007300021F0004110EBD37021FA04F642EB0601E0
:100740005EEA430E08BF20EAD37070BDC4F10C040A
:10075000C4F1200500FA04F320FA05F001FA04F2CE
:1007600040EA020001F0004110EBD37041F10001BA
:100770005EEA430E08BF20EAD37070BDC4F12005C5
:1007800000FA05F24EEA020E20FA04F301FA05F22D
:1007900043EA020321FA04F001F0004121FA04F2D5
:1007A00020EA020000EBD3705EEA430E08BF20EAA5
:1007B000D37070BD94F0000F0FD101F000464000DF
:1007C00041EB010111F4801F08BF013CF7D041EA61
:1007D000060195F0000F18BF704703F00046520065
:1007E00043EB030313F4801F08BF013DF7D043EA36
:1007F0000603704794EA0C0F0CEA135518BF95EAEC
:100800000C0F0CD050EA410618BF52EA4306D1D172
:1008100081EA030101F000414FF0000070BD50EA91
:10082000410606BF1046194652EA430619D094EA1B
:100830000C0F02D150EA013613D195EA0C0F05D105
:1008400052EA03361CBF104619460AD181EA030159
:1008500001F0004141F0FE4141F470014FF0000011
:1008600070BD41F0FE4141F4780170BD70B54FF0AC
:10087000FF0C4CF4E06C1CEA11541DBF1CEA13552C
:1008800094EA0C0F95EA0C0F00F0A7F8A4EB05040E
:1008900081EA030E52EA03354FEA013100F0888005
:1008A0004FEA03334FF0805545EA131343EA1263CE
:1008B0004FEA022245EA111545EA10654FEA002683
:1008C0000EF000419D4208BF964244F1FD0404F53C
:1008D000407402D25B084FEA3202B61A65EB030598
:1008E0005B084FEA32024FF480104FF4002CB6EB55
:1008F000020E75EB030E22BFB61A754640EA0C00D5
:100900005B084FEA3202B6EB020E75EB030E22BF14
:10091000B61A754640EA5C005B084FEA3202B6EB55
:10092000020E75EB030E22BFB61A754640EA9C0014
:100930005B084FEA3202B6EB020E75EB030E22BFE4
:10094000B61A754640EADC0055EA060E18D04FEAA2
:10095000051545EA16754FEA06164FEAC30343EA42
:1009600052734FEAC2025FEA1C1CC0D111F4801F0F
:100970000BD141EA00014FF000004FF0004CB6E708
:1009800011F4801F04BF01430020B4F1FD0C88BFA7
:10099000BCF5E06F3FF6AFAEB5EB030C04BFB6EBB2
:1009A000020C5FEA500C50F1000041EB045170BDA5
:1009B0000EF0004E4EEA113114EB5C04C2BFD4EBD2
:1009C0000C0541EA045170BD41F480114FF0000E56
:1009D000013C90E645EA060E8DE60CEA135594EAD2
:1009E0000C0F08BF95EA0C0F3FF43BAF94EA0C0FD5
:1009F0000AD150EA01347FF434AF95EA0C0F7FF44A
:100A000025AF104619462CE795EA0C0F06D152EA9D
:100A100003353FF4FDAE1046194622E750EA410681
:100A200018BF52EA43067FF4C5AE50EA41047FF492
:100A30000DAF52EA43057FF4EBAE12E74FF0FF3CF7
:100A400006E000BF4FF0010C02E000BF4FF0010CC8
:100A50004DF804CD4FEA410C7FEA6C5C4FEA430C41
:100A600018BF7FEA6C5C1BD001B050EA410C0CBF90
:100A700052EA430C91EA030F02BF90EA020F0020F2
:100A8000704710F1000F91EA030F58BF994208BF59
:100A900090422CBFD8176FEAE37040F00100704716
:100AA0004FEA410C7FEA6C5C02D150EA013C07D16D
:100AB0004FEA430C7FEA6C5CD6D152EA033CD3D0B8
:100AC0005DF8040B704700BF8446104662468C46B2
:100AD0001946634600E000BF01B5FFF7B7FF0028E5
:100AE00048BF10F1000F01BD4DF808EDFFF7F4FF0E
:100AF0000CBF012000205DF808FB00BF4DF808ED99
:100B0000FFF7EAFF34BF012000205DF808FB00BFBB
:100B10004DF808EDFFF7E0FF94BF012000205DF8DD
:100B200008FB00BF4DF808EDFFF7CEFF94BF012092
:100B300000205DF808FB00BF4DF808EDFFF7C4FF8B
:100B400034BF012000205DF808FB00BF4FEA410CD4
:100B50007FEA6C5C02D150EA013C0AD14FEA430CB7
:100B60007FEA6C5C02D152EA033C02D14FF00000F4
:100B700070474FF0010070474FEA410212F5001232
:100B800015D211D56FF47873B3EB625212D94FEAD4
:100B9000C12343F0004343EA505311F0004F23FABE
:100BA00002F018BF404270474FF00000704750EA13
:100BB000013005D111F0004008BF6FF000407047D0
:100BC0004FF00000704700BF4A0011D212F500122A
:100BD00011D20DD56FF47873B3EB62520ED44FEA95
:100BE000C12343F0004343EA505323FA02F0704715
:100BF0004FF00000704750EA013002D14FF0FF3053
:100C000070474FF0000070474FEA4102B2F1E043F5
:100C100024BFB3F5001CDCF1FE5C0DD901F0004CE3
:100C20004FEAC0024CEA5070B2F1004F40EB830033
:100C300008BF20F00100704711F0804F21D113F15F
:100C40003872BCBF01F00040704741F480114FEA98
:100C50005252C2F11802C2F1200C10FA0CF320FA21
:100C600002F018BF40F001004FEAC1234FEAD3233E
:100C700003FA0CFC40EA0C0023FA02F34FEA4303A8
:100C8000CCE77FEA625307D150EA01331EBF4FF031
:100C9000FE4040F44000704701F0004040F0FE404C
:100CA00040F40000704700BF53B94AB9002908BF9B
:100CB00000281CBF4FF0FF314FF0FF3000F0A0B90B
:100CC000ADF1080C6DE904CE00F03CF8DDF804E06D
:100CD000DDE9022304B0704738B500220023044642
:100CE0000D46FFF70BFF28B920462946BDE83840DE
:100CF00000F00AB8204605F1004100F005F8404236
:100D000061EB410138BD00BFD0B50C4B0022064657
:100D10000F46FFF781FCFFF757FF0446FFF702FC81
:100D2000074B0022FFF778FC02460B463046394657
:100D3000FFF7BAFAFFF748FF2146D0BD0000F03DAB
:100D40000000F0412DE9F047089D0C46002B4ED1E4
:100D500094468C458646B2FA82F262D94AB1C2F113
:100D60002003914020FA03F30CFA02FC194300FA25
:100D700002FE4FEA1C471FFA8CF6B1FBF7F44FEA6C
:100D80001E4307FB141143EA014304FB06F1994299
:100D90000AD91CEB030304F1FF3080F01281994261
:100DA00040F20F81023C6344591A1FFA8EF3B1FBE3
:100DB000F7F007FB101143EA014300FB06F69E42E1
:100DC0000AD91CEB030300F1FF3180F0FC809E4246
:100DD00040F2F980634402389B1B40EA0440002142
:100DE0001DB1D3400022C5E90032BDE8F0878B4237
:100DF00005D90DB1C5E9000100210846F5E7B3FAB0
:100E000083F1002946D1A34202D39042C0F0F08082
:100E1000861A64EB03030120002DE6D0C5E90063C8
:100E2000E3E7002A40F09080A1EB0C044FEA1C4855
:100E30001FFA8CF70121B4FBF8F64FEA1E4308FBBA
:100E4000164443EA044307FB06F0984208D91CEB1A
:100E5000030306F1FF3402D2984200F2CD80264609
:100E60001C1A1FFA8EF3B4FBF8F008FB104443EA97
:100E7000044300FB07F79F4208D91CEB030300F172
:100E8000FF3402D29F4200F2B0802046DB1B40EAD2
:100E90000640A5E7C1F120068B4022FA06F71F4362
:100EA00020FA06FC04FA01F343EA0C03F44000FACA
:100EB00001F8380C4FEA1349B4FBF0FE1FFA87FC27
:100EC00000FB1E4449EA04440EFB0CF9A14502FA5A
:100ED00001F20AD93C190EF1FF3A80F08480A14555
:100EE00040F28180AEF1020E3C44A4EB09041FFAEB
:100EF00083F9B4FBF0F300FB134449EA044403FB19
:100F00000CFCA44507D93C1903F1FF3067D2A44576
:100F100065D9023B3C4443EA0E40A0FB0293A4EB9C
:100F20000C049C42CE469C4651D34ED055B1B8EBF2
:100F30000E0364EB0C0404FA06F6CB401E43CC40CF
:100F4000C5E90064002150E7C2F1200320FA03F153
:100F50000CFA02FC24FA03F394400C434FEA1C48B9
:100F600000FA02FE1FFA8CF7B3FBF8F008FB103111
:100F7000230C43EA014300FB07F1994208D91CEB1B
:100F8000030300F1FF362CD299422AD90238634478
:100F90005B1AA4B2B3FBF8F108FB113344EA034433
:100FA00001FB07F3A34208D91CEB040401F1FF364F
:100FB00013D2A34211D902396444E41A41EA004130
:100FC00039E70446F0E6084606E7C845AED2B9EB75
:100FD000020E63EB070C0138A8E73146EDE7034644
:100FE00099E73046D4E7D6467FE7634402384DE7B9
:100FF0000646234608460FE7023E634430E700BF3B
:10100000704700BF80B485B000AFF860B9603B6046
:101010001346FB80FB68BA689A62FB68FA881A86F6
:10102000FB683A8B5A86FB683A68DA6200BF14376D
:10103000BD465DF8047B704780B483B000AF786034
:1010400039607B683A685A6300BF0C37BD465DF86B
:10105000047B704780B582B000AF7860854B5B78C9
:10106000DBB2002B02D07B6800225A707B685B6B7E
:101070001B687A685268DA627B685B6B7A685268D0
:10108000DA607B685B78032B00F2EB8001A252F8F8
:1010900023F000BFA5100008C3100008CB11000802
:1010A0007D1100087B6800229A617B680022DA616A
:1010B0007B685B6B184607F0EDFD7B6800221A70B9
:1010C000CFE07B6801221A707B689A6A7B681B8E6E
:1010D0001946104604F0B3FE7B689B695A1C7B6876
:1010E0009A617B685B695A1C7B685A617B685A68A5
:1010F0007B685B685B0019467B68DB690B44796839
:10110000496989000131B3FBF1F3D21A7B681A6295
:101110007B685B685B001A467B68DB6913447A680E
:10112000526992000132B3FBF2F101FB02F29A1A0A
:101130007B68DA617B689A697B689B689A4207D30F
:101140007B68DA687B685A617B6802225A7083E0A8
:101150007B681B6A7A68126993427DD87B681A6A39
:101160007B685A627B681B691A467B681A627B68D7
:101170000022DA617B6803225A706DE07B680122ED
:101180001A707B689A6A7B681B8E1946104604F0B9
:1011900056FE7B689B695A1C7B689A617B681B6959
:1011A0001A467B681A627B689A697B689B689A42D8
:1011B00054D37B68DA687B685A617B685A6A7B68BB
:1011C0001A627B6802225A7048E07B6801221A701A
:1011D0007B689A6A7B681B8E1946104604F02FFEC6
:1011E0007B689B695A1C7B689A617B685B695A1CA7
:1011F0007B685A617B685A687B685B685B0019464C
:101200007B68DB690B44796849690029B8BF4942AA
:1012100089000131B3FBF1F31A447B681A627B68E1
:101220005B685B001A467B68DB6913447A68526925
:10123000002AB8BF524292000132B3FBF2F101FB27
:1012400002F29A1A7B68DA617B685B69002B07DB24
:101250007B6800225A7003E000BF02E000BF00E09C
:1012600000BF7B681A6A7B685A6000BF0837BD46BA
:1012700080BD00BFCC07002080B483B000AF786091
:101280007B6800221A707B6800225A707B680022FB
:101290009A707B680022DA707B6800221A717B6882
:1012A00000225A717B680022DA847B6800221A854A
:1012B0007B6800225A857B6800229A857B68002221
:1012C000DA857B6800221A867B6849F640425A8696
:1012D0007B6844F620629A867B6840F6B832DA86EC
:1012E0007B6840F6B8321A877B684FF07A52DA632F
:1012F0007B684FF07C521A6400BF0C37BD465DF826
:10130000047B704780B584B000AF3B4600221A6072
:101310005A609A60DA60194B194A1A60174B4FF4F9
:1013200080325A60154B00229A60144B01221A61D8
:10133000124B01221A76114B002283F820200F4B0A
:101340000022DA620D4B0F4A9A620C4B0022DA60DF
:101350000A4B0122DA61094B002283F83020074B47
:1013600001225A61054803F043F90346002B01D0DE
:1013700000F0ECFE00BF1037BD4680BD54030020D6
:10138000002001400100000F80B584B000AF3B4653
:1013900000221A605A609A60DA600A233B600123D7
:1013A0007B600723BB603B461946064803F030FCD0
:1013B0000346002B01D000F0C9FE00BF1037BD4628
:1013C00080BD00BF5403002080B584B000AF3B4611
:1013D00000221A605A609A60DA600B233B60012396
:1013E0007B600123BB603B461946064803F010FCB6
:1013F0000346002B01D000F0A9FE00BF1037BD4608
:1014000080BD00BF5403002080B582B000AF002330
:101410007B600C4B1B6B0B4A43F480031363094B3B
:101420001B6B03F480037B607B680022052138205E
:1014300003F0F1FE382003F00AFF00BF0837BD4675
:1014400080BD00BF0038024080B58AB000AF786030
:1014500007F1140300221A605A609A60DA601A6178
:101460007B681B68334A93425FD100233B61324B58
:101470005B6C314A43F4807353642F4B5B6C03F411
:1014800080733B613B690023FB602B4B1B6B2A4A3B
:1014900043F004031363284B1B6B03F00403FB604E
:1014A000FB6803237B610323BB610023FB6107F11E
:1014B00014031946214804F0F5FA214B214A1A6019
:1014C0001F4B00225A601E4B00229A601C4B0022C8
:1014D000DA601B4B4FF480621A61194B4FF40062C3
:1014E0005A61174B4FF400529A61154B4FF48072BA
:1014F000DA61134B00221A62114B00225A62104823
:1015000003F0C0FE0346002B01D000F01FFE7B68F5
:101510000B4A9A630A4A7B689363002205211220D2
:1015200003F079FE122003F092FE00BF2837BD467B
:1015300080BD00BF0020014000380240000802408A
:101540009C0300201064024080B500AF164B5B6D19
:101550001846FFF709F802460B46144914480CF0E8
:1015600021FE114B1B6D1846FEF7FEFF02460B468F
:101570000E4910480CF016FE0B4B9B6D1846FEF7FB
:10158000F3FF02460B4609490B480CF00BFE064BD5
:10159000DB6D1846FEF7E8FF02460B460349074895
:1015A0000CF000FE00BF80BDB806002068320108C4
:1015B000FC03002006040020100400201A04002070
:1015C00080B588B004AF78607B681B680E4A934290
:1015D00015D1FFF7B9FF0D4B02930D4B01930D4B46
:1015E00000930D4B0D4A64210D480CF0A7FDF860E7
:1015F000FB689BB21A460A490A4807F07FFF00BF02
:101600001037BD4680BD00BF004400401A040020D2
:101610001004002006040020FC03002070320108A2
:10162000240400208409002080B586B004AFFFF7B1
:101630008BFF0C4B02930C4B01930C4B00930C4B08
:101640000C4A64210C480CF079FD78607B689BB2F1
:101650001A460949094807F051FF00BF0837BD463F
:1016600080BD00BF1A0400201004002006040020E2
:10167000FC030020703201082404002084090020AB
:1016800080B582B000AF786022497868FEF7A0FD8F
:101690000346002B0ED17A681F4920480CF082FDCA
:1016A0001F4B01221A701E4B00225A701C4B002245
:1016B0009A702AE01B497868FEF78AFD0346002BE2
:1016C0000ED17A68144918480CF06CFD144B0122B5
:1016D0005A70134B00221A70114B00229A7014E0BA
:1016E00012497868FEF774FD0346002B0DD17A6825
:1016F00009490F480CF056FD094B01229A70084B1E
:1017000000221A70064B00225A7000BF0837BD46EF
:1017100080BD00BF803201088832010888040020A3
:10172000CC0700208C32010892040020943201087A
:101730009C04002080B485B000AFF860B9607A6086
:1017400000BF1437BD465DF8047B704780B500AF1D
:1017500064220349034807F007FF00BF80BD00BFB4
:10176000C40400208409002090B585B002AF634B0B
:10177000002283F86320624B1B881A46614B134496
:101780005F4A1288C2F163025C4918460CF0DCFD26
:101790005A48FEF77DFD03469AB2594B1B88134405
:1017A0009AB2574B1A80564B1B881A46554B00214C
:1017B00099545EE00522544978680CF0B3FD034665
:1017C000002B17D15048FFF75BFF7B685C1D7B68DF
:1017D00005331846FEF75CFD034601331A462146E1
:1017E00048480CF06EFD464B1B88053B9AB2444BB3
:1017F0001A803EE00422454978680CF093FD0346C8
:10180000002B17D14148FFF73BFF7B681C1D7B680D
:1018100004331846FEF73CFD034601331A462146C1
:1018200038480CF04EFD364B1B88043B9AB2344BC3
:101830001A801EE00522364978680CF073FD0346D5
:10184000002B2FD13248FFF71BFF7B685C1D7B68A4
:1018500005331846FEF71CFD034601331A462146A0
:1018600028480CF02EFD264B1B88053B9AB2244BD2
:101870001A80254923480CF0D7FD78607B68002B3F
:1018800098D122491F480CF0CFFD78607B68002B6F
:1018900090D11F491B480CF0C7FD78607B68002B76
:1018A00088D100E000BF1B4916480CF061FD38608C
:1018B00019E0194B0093194B194A1A4938680CF072
:1018C00091FC0346032B09D1174B1B78DBB2012B8C
:1018D00004D1114A11491248FFF72CFF0D4900208D
:1018E0000CF046FD38603B68002BE2D1044B00222F
:1018F0001A8000BF0C37BD4690BD00BFC404002055
:10190000F005002028050020803201088C320108F3
:10191000943201089C320108BA040020B00400206F
:10192000A6040020A0320108CC07002080B582B0B8
:1019300000AF78607B681B68064A934206D1FFF7C8
:1019400013FF64220449054807F00EFE00BF083764
:10195000BD4680BD00440040C4040020840900202E
:1019600080B584B002AF78601B48FFF785FC022386
:1019700000931A4B012219491948FFF743FB08232A
:101980000093164B042215491648FFF73BFB202312
:101990000093124B102211491348FFF733FB1349F0
:1019A0000F48FFF749FB12490E48FFF745FB114965
:1019B0000D48FFF741FB104B4FF00002DA600E4B71
:1019C0004FF000021A610C4B4FF000025A610120E7
:1019D00008F084FFFBE700BF08060020000002407B
:1019E000AC020020E40200201C0300201C080020A0
:1019F00064080020AC0800204C06002080B582B0AE
:101A000000AF786000F09CFF012008F067FF00BF86
:101A1000F8E7000080B582B000AF7860074800F0BA
:101A20009BFB074800F0C4FB01F044F801F028FCE0
:101A3000012008F053FF00BFF8E700BFB806002000
:101A40007C07002080B582B000AF7860FFF7ECFD26
:101A5000012008F043FFFBE780B582B000AF78605B
:101A6000FFF774FEFFF780FE012008F037FF00BF8C
:101A7000F8E7000080B500AF144A0021144808F0D0
:101A80009BFE0346134A1360134A0021134808F0D3
:101A900093FE0346124A1360124A0021124808F0CE
:101AA0008BFE0346114A1360114A0021114808F0C9
:101AB00083FE0346104A1360104A0021104808F0C4
:101AC0007BFE03460F4A136000BF80BD043501084A
:101AD00061190008F405002028350108FD190008E7
:101AE000F80500204C350108151A0008FC050020F7
:101AF00070350108451A00080006002094350108D9
:101B0000591A00080406002080B58CB000AF07F118
:101B10001C0300221A605A609A60DA601A6100237E
:101B2000BB617C4B1B6B7B4A43F080031363794B97
:101B30001B6B03F08003BB61BB6900237B61754BAA
:101B40001B6B744A43F004031363724B1B6B03F06B
:101B500004037B617B6900233B616E4B1B6B6D4A09
:101B600043F0010313636B4B1B6B03F001033B61F9
:101B70003B690023FB60674B1B6B664A43F0020323
:101B80001363644B1B6B03F00203FB60FB680023D1
:101B9000BB60604B1B6B5F4A43F0100313635D4BEC
:101BA0001B6B03F01003BB60BB6800237B60594BC9
:101BB0001B6B584A43F008031363564B1B6B03F02F
:101BC00008037B607B6800223F21534804F01EF924
:101BD00000224FF42041514804F018F900224FF43C
:101BE00020514F4804F012F93F23FB6101233B626F
:101BF00000237B620023BB6207F11C0319464648A1
:101C000003F050FFC023FB614FF444133B620123F8
:101C10007B6207F11C0319463F4803F043FF102382
:101C2000FB614FF444133B6201237B6207F11C0309
:101C300019463C4803F036FF2023FB6100233B623A
:101C400001237B6207F11C031946364803F02AFF83
:101C500041F20703FB6100233B6201237B6207F132
:101C60001C0319462E4803F01DFF4FF4C073FB619F
:101C700000233B6201237B6207F11C0319462748BE
:101C800003F010FF4FF4F053FB614FF444133B6239
:101C900001237B6207F11C031946204803F002FF71
:101CA0004FF42043FB6101233B6200237B6200234E
:101CB000BB6207F11C031946184803F0F3FE4FF40A
:101CC0002053FB6101233B6200237B620023BB6244
:101CD00007F11C031946124803F0E4FE0022052117
:101CE0000A2003F098FA0A2003F0B1FA0022052135
:101CF000172003F090FA172003F0A9FA002205211B
:101D0000282003F088FA282003F0A1FA00BF30371A
:101D1000BD4680BD00380240000002400010024075
:101D2000000402400008024080B500AF124B134A85
:101D30001A60114B124A5A600F4B00229A600E4BE8
:101D40000022DA600C4B4FF480421A610A4B0022E9
:101D50005A61094B00229A61074B0022DA61064B57
:101D600000221A62044804F09DF80346002B01D0BB
:101D700000F0ECF900BF80BD640600200054004074
:101D8000A086010080B58AB000AF786007F1140327
:101D900000221A605A609A60DA601A617B681B68D8
:101DA000214A93423BD100233B61204B1B6B1F4ACE
:101DB00043F0020313631D4B1B6B03F002033B61F3
:101DC0003B69C0237B611223BB610023FB610323BA
:101DD0003B6204237B6207F114031946144803F0A5
:101DE00061FE0023FB60114B1B6C104A43F400138F
:101DF00013640E4B1B6C03F40013FB60FB680022A2
:101E000005211F2003F007FA1F2003F020FA00220B
:101E10000521202003F0FFF9202003F018FA00BF6D
:101E20002837BD4680BD00BF005400400038024046
:101E30000004024080B586B002AF0346FB71FB7917
:101E400023F00F03FB73FB791B01BB73FB7B43F098
:101E50000C03DBB23B72FB7B43F00803DBB27B720B
:101E6000BB7B43F00C03DBB2BB72BB7B43F00803CC
:101E7000DBB2FB7207F108026423009304234E21B6
:101E8000034804F069F900BF1037BD4680BD00BFAC
:101E90006406002080B586B002AF0346FB71FB7973
:101EA00023F00F03FB73FB791B01BB73FB7B43F038
:101EB0000D03DBB23B72FB7B43F00903DBB27B72A9
:101EC000BB7B43F00D03DBB2BB72BB7B43F009036A
:101ED000DBB2FB7207F108026423009304234E2156
:101EE000034804F039F900BF1037BD4680BD00BF7C
:101EF0006406002080B500AF0120FFF79BFF0220A1
:101F000002F052FB00BF80BD90B587B000AF786093
:101F100039600E4B07F108040FCB84E80F007B6893
:101F20009B0018333B4453F8103CDAB23B68DBB2F9
:101F30001344DBB25BB263F07F035BB2DBB21846E3
:101F4000FFF778FF00BF1C37BD4690BDF83201088F
:101F500080B500AF322002F027FB3320FFF76AFF85
:101F6000052002F021FB3220FFF764FF012002F080
:101F70001BFB2820FFF75EFF012002F015FB082065
:101F8000FFF758FF012002F00FFB0120FFF752FF7F
:101F9000022002F009FB0620FFF74CFF012002F0AF
:101FA00003FB0C20FFF746FF00BF80BD80B582B069
:101FB00000AF786006E07B685A1C7A601B78184690
:101FC000FFF768FF7B681B78002BF4D100BF00BFD0
:101FD0000837BD4680BD80B500AF02F073FA00F04F
:101FE00021F8FFF791FDFFF70FFA02F09FF9FFF7D5
:101FF00089F9FFF799FE01F0F7FE01F045FF01F0C6
:102000008FFF01F0DBFF02F027F802F073F802F017
:1020100063F908F087FBFFF72DFD08F0A7FB00BF71
:10202000FDE7000080B594B000AF07F12003302237
:10203000002118460CF05FF907F10C0300221A602A
:102040005A609A60DA601A610023BB60284B1B6CEF
:10205000274A43F080531364254B1B6C03F08053D5
:10206000BB60BB6800237B60224B1B68214A43F4A2
:10207000804313601F4B1B6803F480437B607B68C5
:1020800001233B624FF480337B620223BB634FF436
:102090008003FB6304233B64A8237B640223BB64AB
:1020A0000423FB6407F12003184606F09BF803465F
:1020B000002B01D000F04AF80F23FB6002233B61A4
:1020C00000237B614FF4A053BB614FF48053FB614D
:1020D00007F10C030521184606F0FCFA0346002B15
:1020E00001D000F033F800BF5037BD4680BD00BFBF
:1020F000003802400070004080B582B000AF7860C8
:102100007B681B68B3F1804F02D10B48FEF7A2FF3A
:102110007B681B68094A934202D10948FEF79AFF7F
:102120007B681B68074A934202D10748FEF792FF7B
:1021300000BF0837BD4680BDAC020020000400404F
:10214000E4020020000800401C03002080B400AF1F
:1021500072B600BF00BFFDE780B483B000AF786007
:102160007B680E4AC3F880207B680D4AC3F8842040
:102170007B680C4AC3F888207B684FF08042C3F824
:102180008C207B68084A5A677B68084A9A6700BFB8
:102190000C37BD465DF8047B704700BF022B873DBE
:1021A00000002040CDCCCC3E0AD7233B5C8F423F81
:1021B00080B483B000AF78607B680A221A607B68C5
:1021C0004FF000029A607B680B4ADA617B680B4A29
:1021D0001A627B684FF000025A627B684FF07E52B1
:1021E0009A627B684FF000021A6300BF0C37BD464D
:1021F0005DF8047B704700BFACC527370AD7233C86
:1022000080B582B000AF0346FB800A4806F0D2FCDE
:10221000084B1B6800225A6200BF064B1B685A6AB3
:10222000FB889A42F9D3034806F034FD00BF083713
:10223000BD4680BD3C09002080B584B000AF786009
:102240000B46FB7013463B80FB78002B05D1012227
:102250000221104803F0DAFD04E0002202210D48BB
:1022600003F0D4FD0023FB600AE00121094803F0DC
:10227000E6FD3B881846FFF7C3FFFB680133FB60B0
:10228000FA687B689A42F0DB00BF00BF1037BD469A
:1022900080BD00BF0000024080B584B000AF786010
:1022A0000B46FB7013463B80FB78002B05D10122C7
:1022B0000821104803F0AAFD04E0002208210D487F
:1022C00003F0A4FD0023FB600AE00421094803F0A9
:1022D000B6FD3B881846FFF793FFFB680133FB60B0
:1022E000FA687B689A42F0DB00BF00BF1037BD463A
:1022F00080BD00BF0000024080B584B000AF7860B0
:102300000B46FB7013463B80FB78002B05D1012266
:102310002021104803F07AFD04E0002220210D481E
:1023200003F074FD0023FB600AE01021094803F06C
:1023300086FD3B881846FFF763FFFB680133FB60AF
:10234000FA687B689A42F0DB00BF00BF1037BD46D9
:1023500080BD00BF0000024080B483B000AF0346E0
:10236000FB80FB8807EE903AF8EE677A2F4BC3EDBF
:10237000057A2E4B1B6B2D4AD3602C4BDB682B4A06
:1023800013612A4B93ED067A284BD3ED077A77EE4B
:10239000277A264BC3ED0A7A244BD3ED0A6A234BE6
:1023A00093ED0A7A214BD3ED087A37EE277AC6EE01
:1023B000877A1E4BC3ED097A1C4B93ED047A1B4BB5
:1023C000D3ED096A194B93ED056A184BD3ED0C7ADE
:1023D00076EE677A66EEA77A77EE277A134BC3ED2F
:1023E0000B7A124BD3ED097AB7EE007A37EE677AA3
:1023F0000E4BD3ED0A7A67EE277A0C4BC3ED067AC3
:102400000A4B9B69094A9362084BDB6A074A1363CC
:10241000064BD3ED0B7AFCEEE77A17EE903A9BB2BF
:1024200018460C37BD465DF8047B70477C070020DA
:1024300080B483B000AF0346FB801C4BDA6C1B4BAF
:102440009B6C1A4918335B000B449B88D31A174ABC
:10245000D364164B9B6C154A18335B001344FA88FF
:102460009A80124BDA6C114B9B6C104918335B004D
:102470000B449B8813440D4AD3640C4B9B6C013373
:102480000A4A126893FBF2F101FB02F29B1A074A17
:102490009364064BDB6C054A1268B3FBF2F39BB204
:1024A00018460C37BD465DF8047B70477C0700205A
:1024B000B0B582B000AF0346FB80FB881846FEF73C
:1024C00041F81AA3D3E90023FEF7A6F802460B460B
:1024D00014461D46144B9B681846FEF745F810A39A
:1024E000D3E90023FEF798F802460B46204629461A
:1024F000FDF7DCFE02460B4610461946FEF784FB4C
:102500000346094A9360084BD3ED027AFCEEE77A62
:1025100017EE903A9BB218460837BD46B0BD00BFD3
:10252000C743AFA4B4F5EF3F7C070020677178A1E3
:10253000B696543F0000000080B582B000AFFEF7B1
:1025400023FF554802F098F80121534802F099F909
:1025500000237B606CE0504802F02EFB03469AB2E9
:102560004E4BA3F84C204D4BB3F84C3007EE903A4D
:10257000F8EE677A9FED4A7AC7EE876A16EE900A00
:10258000FDF7F2FF40A3D3E90023FEF745F802462A
:102590000B4610461946FEF737FB03463F4A936643
:1025A0003E4B9B6E1846FDF7DFFF4FF000023D4BA0
:1025B000FEF732F802460B461046194634A3D3E91B
:1025C0000023FDF773FE02460B4610461946FEF740
:1025D0001BFB0346314AD366304BD3ED1B7AB3EE77
:1025E000007AF4EEC77AF1EE10FA1EDD2B4BD3ED34
:1025F0001B7AB3EE057AF4EEC77AF1EE10FA14D531
:10260000264B93ED0F7A254BD3ED1B7A77EE277A85
:10261000224BC3ED0F7A214BD3ED0E7AB7EE007A41
:1026200077EE877A1D4BC3ED0E7A7B6801337B60B2
:102630007B68B3F5FA7F8EDB184BD3ED0E7AF5EE9F
:10264000407AF1EE10FA13D0144BD3ED0F6A134B0E
:1026500093ED0E7AC6EE877A104BC3ED157A0F4BC9
:102660004FF00002DA630D4B4FF000029A6303E073
:102670000A4B4FF000025A65074802F0CFF800BF3E
:102680000837BD4680BD00BFCDCCCCCCCCCC0C40F7
:102690009A9999999999B93F54030020B806002056
:1026A00000F07F4500001A40B0B582B000AFFEF7E1
:1026B0008BFE754801F0E0FF0121734802F0E1F85C
:1026C000714802F079FA03469AB2704BA3F84E2093
:1026D0006E4BB3F84E301846FFF7AAFE0346FB8058
:1026E000FB881846FFF7E4FE0346BB80BB8818460C
:1026F000FFF732FE03461A46654B9A80644B9B886F
:102700001846FDF71FFF56A3D3E90023FDF784FF0A
:1027100002460B4614461D465D4B9B881846FDF746
:1027200011FF02460B4620462946FDF775FF02467B
:102730000B4614461D46564B9B881846FDF702FF74
:1027400049A3D3E90023FDF767FF02460B46204665
:102750002946FDF7A9FD02460B461046194644A33B
:10276000D3E90023FDF7A2FD02460B4610461946A9
:10277000FEF74AFA0346454A5364444BD3ED117AB7
:10278000B5EE007AF4EEC77AF1EE10FA0DDD3F4BAC
:10279000D3ED117AB2EE0E7AF4EEC77AF1EE10FABA
:1027A00003D53A4B5B6C394A1365384BD3ED117A3C
:1027B000B5EE007AF4EEC77AF1EE10FA03D5334B9A
:1027C0004FF000021A65324B9B881846FDF7BAFE9F
:1027D00029A3D3E90023FDF71FFF02460B4610464D
:1027E000194627A3D3E90023FEF740F802460B461B
:1027F00014461D46254B5B6F1846FDF7B5FE024695
:102800000B4620462946FDF74FFD02460B4614466F
:102810001D461E4B9B6F1846FDF7A6FE02460B4653
:1028200020462946FEF722F802460B461046194676
:102830004FF00002174BFDF739FD02460B461046DC
:102840001946FEF7E1F90346104AD3670E4801F036
:10285000E5FF00BF0837BD46B0BD00BFAFF3008045
:1028600048AFBC9AF2D78A3ED42B6519E258873F0D
:102870000A75A26EB1C641406666666666660A4023
:102880000000000000FEAF4054030020B806002006
:102890007C0700200000394080B400AF074B93ED67
:1028A000147A064BD3ED157A67EE277A034BC3ED06
:1028B000177A00BFBD465DF8047B7047B80600205C
:1028C00080B400AF1D4BD3ED177AF5EE407AF1EEF0
:1028D00010FA04D1194B4FF000029A6529E0174B0A
:1028E00093ED157A154BD3ED237A67EE276A134BD8
:1028F00093ED177AC6EE877A104BC3ED247A0F4B0F
:1029000093ED177A0D4BD3ED247A67EE277A0B4BB4
:10291000C3ED187A094BD3ED186A084BD3ED227A30
:10292000B3EE047A27EE877AC6EE877A034BC3EDBF
:10293000167A00BFBD465DF8047B7047B8060020DC
:1029400080B500AFFFF7F8FDFFF7AEFEFFF7A4FF7D
:10295000FFF7B6FF012007F0C1FF00BF80BD0000F8
:102960002DE9F04F8DB000AF87ED030AB8607960B4
:102970006B461E46D7ED037AFDEEE77A17EE903AE6
:10298000BB62BB6A07EE903AF8EEE77A97ED037AFE
:1029900077EE677A17EE900AFDF7E6FD82468B46E2
:1029A0007868FDF7CFFD02460B4643EC112B9FEDF7
:1029B0003E0B0FF0EFFC53EC102B50465946FDF741
:1029C0002BFE02460B4610461946FEF7D5F8034685
:1029D0007B620A22B968B86A0AF03EFCB868FDF763
:1029E00057FC03463B623B6ABA6813442E221A70B6
:1029F0003B6A0133BA68134400221A707B68591C81
:102A00004B1EFB610A460023904699464FF0000298
:102A10004FF000034FEAC90343EA58734FEAC80274
:102A20000A46002314461D464FF000024FF00003F3
:102A3000EB0043EA5473E2000B460733DB08DB008C
:102A4000ADEB030D6B460033BB610A22B969786AAE
:102A50000AF002FCB869FDF71BFC03467B6100230A
:102A6000FB620EE0B868FDF713FC03461A46BB682C
:102A700013440F491A460B461B881380FB6A013327
:102A8000FB627A687B69D31AFA6A9A42EADBB9690F
:102A9000B8680BF038FCB54600BF3437BD46BDE81A
:102AA000F08F00BFAFF30080000000000000244062
:102AB0000833010880B500AFFFF74AFAFFF71AFAAA
:102AC00002210120FFF720FA0848FFF76FFA0848B3
:102AD000FFF76CFA0748FFF769FA03210220FFF7B6
:102AE00013FA0548FFF762FA00BF80BD0C330108F6
:102AF00018330108203301082833010880B500AFDE
:102B0000464B1B68002B1ED1FFF7F4F90021002073
:102B1000FFF7FAF94248FFF749FA00210120FFF7D1
:102B2000F3F94048FFF742FA00210220FFF7ECF9E1
:102B30003D48FFF73BFA00210320FFF7E5F93B484A
:102B4000FFF734FA67E0354B1B68012B1ED1FFF706
:102B5000D1F900210020FFF7D7F93548FFF726FA11
:102B600000210120FFF7D0F93248FFF71FFA0021BA
:102B70000220FFF7C9F92C48FFF718FA00210320BB
:102B8000FFF7C2F92948FFF711FA44E0234B1B680D
:102B9000022B1ED1FFF7AEF900210020FFF7B4F998
:102BA0002348FFF703FA00210120FFF7ADF91D4884
:102BB000FFF7FCF900210220FFF7A6F91E48FFF7F6
:102BC000F5F900210320FFF79FF91848FFF7EEF908
:102BD00021E0124B1B68032B1DD1FFF78BF900215D
:102BE0000020FFF791F91248FFF7E0F900210120DA
:102BF000FFF78AF90B48FFF7D9F900210220FFF708
:102C000083F90948FFF7D2F900210320FFF77CF987
:102C10000A48FFF7CBF900BF80BD00BFB80600200F
:102C20003C3301084C3301085C3301086C33010864
:102C30008033010890330108A0330108B033010844
:102C400080B500AFFFF756F900210020FFF75CF9CF
:102C50002C48FFF7ABF900210120FFF755F92A486E
:102C6000FFF7A4F92DE0294BD3ED157A022128486E
:102C7000B0EE670AFFF774FE09210020FFF744F960
:102C80002348FFF793F90F210020FFF73DF9214872
:102C9000FFF78CF91D4BD3ED147A02211E48B0EEDC
:102CA000670AFFF75DFE09210120FFF72DF91A4899
:102CB000FFF77CF90F210120FFF726F91748FFF7EE
:102CC00075F94021164803F089F80346002B16D009
:102CD0004FF40061134803F081F80346002B0ED037
:102CE00080210F4803F07AF80346002B07D04FF4F9
:102CF00000710C4803F072F80346002BB3D100BFFB
:102D000080BD00BFE4330108F0330108B80600209D
:102D10004C070020FC330108510700200034010853
:102D2000000002400010024080B582B000AFFFF703
:102D3000E1F800210020FFF7E7F83248FFF736F905
:102D400000210120FFF7E0F82F48FFF72FF937E0C7
:102D5000FFF7F2FBFFF7A8FC2C4BD3ED177A02210B
:102D60002B48B0EE670AFFF7FBFD09210020FFF7B3
:102D7000CBF82748FFF71AF90F210020FFF7C4F816
:102D80002448FFF713F9214BD3ED167A022122488C
:102D9000B0EE670AFFF7E4FD204A3B1D12681146BA
:102DA00019800233120C1A703B1D19461A480BF099
:102DB000AAFA09210120FFF7A7F81748FFF7F6F84C
:102DC0004021174803F00AF80346002B16D04FF4B1
:102DD0000061144803F002F80346002B0ED0802156
:102DE0000F4802F0FBFF0346002B07D04FF40071A1
:102DF0000C4802F0F3FF0346002BA9D100BF0837AF
:102E0000BD4680BD043401080C340108B80600201A
:102E10005B07002018340108560700201C34010805
:102E2000000002400010024080B500AF2A4B5B69F1
:102E3000002B17D1FFF75EF800210020FFF764F8A0
:102E40002648FFF7B3F800210120FFF75DF824487A
:102E5000FFF7ACF800210220FFF756F82148FFF7F2
:102E6000A5F836E01C4B5B69012B17D1FFF742F840
:102E700000210020FFF748F81B48FFF797F80021D2
:102E80000120FFF741F81948FFF790F800210220D0
:102E9000FFF73AF81348FFF789F81AE00E4B5B6921
:102EA000022B16D1FFF726F800210020FFF72CF89F
:102EB0000D48FFF77BF800210120FFF725F80848AF
:102EC000FFF774F800210220FFF71EF80848FFF70B
:102ED0006DF800BF80BD00BFB80600202034010897
:102EE0002C340108383401084434010850340108F6
:102EF0005C34010880B500AF0A4B5B69022B0CD033
:102F0000022B0DDC002B02D0012B03D008E0FEF7D2
:102F1000F1FF05E0FEF7EEFF02E0FEF7EBFF00BF7A
:102F200000BF80BDB806002080B500AF0EE0184B92
:102F30005B6A0133164A5362154B5B6A002BB8BFBC
:102F40005B42142200211846FFF776F94FF48061A6
:102F5000104802F043FF0346002BE8D00EE00C4B74
:102F60005B6A013B0A4A5362094B5B6A002BB8BF9C
:102F70005B42142201211846FFF75EF91021064832
:102F800002F02CFF0346002BE9D000BF00BF80BD3C
:102F9000B8060020001002400008024080B500AFD3
:102FA0000EE0184B9B6A0133164A9362154B9B6ADD
:102FB000002BB8BF5B42142200211846FFF76CF9C2
:102FC0004FF48061104802F009FF0346002BE8D05F
:102FD0000EE00C4B9B6A013B0A4A9362094B9B6AC9
:102FE000002BB8BF5B42142201211846FFF754F9A9
:102FF0001021064802F0F2FE0346002BE9D000BF84
:1030000000BF80BDB806002000100240000802404A
:1030100080B500AF0EE0184BDB6A0133164AD3626D
:10302000154BDB6A002BB8BF5B4214220121184606
:10303000FFF762F94FF48061104802F0CFFE0346BB
:10304000002BE8D00EE00C4BDB6A013B0A4AD3624E
:10305000094BDB6A002BB8BF5B42142200211846E3
:10306000FFF74AF91021064802F0B8FE0346002B8C
:10307000E9D000BF00BF80BDB806002000100240AC
:103080000008024080B500AF174B9B69002B12D19E
:10309000FEF730FF00210020FEF736FF1348FEF751
:1030A00085FF00210120FEF72FFF1148FEF77EFF6C
:1030B00000F038F815E00C4B9B69012B11D1FEF79D
:1030C00019FF00210020FEF71FFF0A48FEF76EFFE0
:1030D00000210120FEF718FF0748FEF767FF00F008
:1030E00057F800BF80BD00BFB80600206834010853
:1030F00078340108843401089034010880B500AFA9
:10310000074B9B69002B02D0012B03D005E0FEF793
:10311000F1FE02E0FEF7EEFE00BF00BF80BD00BF83
:10312000B806002080B500AF4FF48061144802F06B
:1031300055FE0346002B0CD1124B1B6B6433114A16
:103140001363104B1B6B9AB20F4B5A860A2007F081
:10315000C5FB10210D4802F041FE0346002B0CD1A7
:10316000084B1B6B643B074A1363064B1B6B9AB2FD
:10317000054B5A860A2007F0B1FB00BF80BD00BF97
:1031800000100240B8060020080600200008024097
:1031900080B500AF4FF48061144802F01FFE034673
:1031A000002B0CD1124B5B6B6433114A5363104BF1
:1031B0005B6B9AB20F4B9A860A2007F08FFB1021A7
:1031C0000D4802F00BFE0346002B0CD1084B5B6B45
:1031D000643B074A5363064B5B6B9AB2054B9A8676
:1031E0000A2007F07BFB00BF80BD00BF001002403B
:1031F000B8060020080600200008024080B582B012
:1032000000AF786039607B685A687B681B88194614
:10321000104602F0E3FD03461A467B689A607B681D
:103220003A68DA6000BF0837BD4680BD80B584B01B
:1032300000AF0346FB8001F0ABF9B8600023FB60F0
:1032400013E00E4AFB6852F823301B88FA889A4232
:1032500008D10A4AFB6852F82330B9681846FFF7CC
:10326000CDFF07E0FB680133FB600722FB68934258
:10327000E7DB00BF00BF1037BD4680BD8C000020DB
:1032800080B584B000AF01F083F9B8600023FB6023
:1032900017E0694AFB6852F823307B607B68DB6883
:1032A000BA68D31A502B09D97B689B68002B05D1CB
:1032B0007B681B6998477B68BA68DA60FB680133F2
:1032C000FB600722FB689342E3DB5C4BDB68032B6C
:1032D00065D15A4BDB69012B61D1584B5B69022BDD
:1032E00040D0022B5BDC002B02D0012B1DD056E01E
:1032F00000210020FEF708FE5148FEF757FE4F4B15
:103300005B6A07EE903AF8EEE77A02214D48B0EE9C
:10331000670AFFF725FB09210020FEF7F5FD494864
:10332000FEF744FEFFF700FE39E000210120FEF722
:10333000EBFD4548FEF73AFE404B9B6A07EE903A9C
:10334000F8EEE77A02214148B0EE670AFFF708FB82
:1033500009210120FEF7D8FD3C48FEF727FEFFF7C4
:103360001DFE1CE000210220FEF7CEFD3848FEF7CE
:103370001DFE324BDB6A07EE903AF8EEE77A022147
:103380003448B0EE670AFFF7EBFA09210220FEF796
:10339000BBFD3048FEF70AFEFFF73AFE00BF274BA1
:1033A000DB68032B44D1254B1B6A012B40D1234BF7
:1033B0009B69002B02D0012B1DD039E00021002099
:1033C000FEF7A2FD2448FEF7F1FD1C4B1B6B07EE38
:1033D000903AF8EEE77A02212048B0EE670AFFF74C
:1033E000BFFA0C210020FEF78FFD1C48FEF7DEFD22
:1033F000FFF798FE1CE000210120FEF785FD18482C
:10340000FEF7D4FD0D4B5B6B07EE903AF8EEE77AD2
:1034100002211448B0EE670AFFF7A2FA0C2101203E
:10342000FEF772FD0F48FEF7C1FDFFF7B1FE00BFCA
:1034300000BF1037BD4680BD8C000020B8060020BC
:10344000203401086007002050340108650700207F
:103450005C3401086A070020683401086F07002007
:10346000903401087407002080B500AF224BDB6860
:10347000012B0FD1204B1B68002B03DC1E4B0322BA
:103480001A6004E01C4B1B68013B1B4A1360FFF7EA
:1034900035FB2EE0184BDB68022B13D1164B1B6853
:1034A000022B0FD1144B5B69002B03DC124B022261
:1034B0005A6104E0104B5B69013B0F4A5361FFF70F
:1034C000B3FC16E00C4BDB68022B12D10A4B1B68D5
:1034D000032B0ED1084B9B69002B03DC064B01220A
:1034E0009A6104E0044B9B69013B034A9361FFF737
:1034F000C9FD00BF80BD00BFB806002080B500AF89
:10350000224BDB68012B0FD1204B1B68022B03DD04
:103510001E4B00221A6004E01C4B1B6801331B4A3F
:103520001360FFF7EBFA2EE0184BDB68022B13D188
:10353000164B1B68022B0FD1144B5B69012B03DD6B
:10354000124B00225A6104E0104B5B6901330F4AB1
:103550005361FFF769FC16E00C4BDB68022B12D1BC
:103560000A4B1B68032B0ED1084B9B69002B03DD14
:10357000064B00229A6104E0044B9B690133034A25
:103580009361FFF77FFD00BF80BD00BFB80600203C
:1035900080B500AF544B1B690133534A1361524B42
:1035A0001B69012B40F099804F4BDB68012B1AD12E
:1035B0004D4B1B68002B0BD04B4B1B68012B07D0CE
:1035C000494B1B68022B03D0474B1B68032B0AD1C6
:1035D000454BDB68013B444AD360434B00221A61F0
:1035E000FFF768FA7DE0404BDB68022B0ED13E4BC3
:1035F0001B68002B0AD13C4BDB68013B3A4AD36085
:10360000394B00221A61FFF779FA6AE0364BDB6822
:10361000022B0ED1344B1B68012B0AD1324BDB68D5
:10362000013B314AD360304B00221A61FFF766FA42
:1036300057E02D4BDB68022B11D12B4B1B68022B63
:103640000DD1294BDB68013B274AD360264B002272
:103650001A61254B0022DA61FFF750FA41E0224B54
:10366000DB68032B0FD1204BDB69002B0BDD1E4BDE
:1036700000221A611C4B0222DA601B4B00225A61A5
:10368000FFF7D2FB2DE0184BDB68022B11D1164B54
:103690001B68032B0DD1144BDB68013B124AD3602E
:1036A000114B00221A61104B00221A62FFF726FA12
:1036B00017E00D4BDB68032B13D10B4B1B6A002B60
:1036C0000FDD094B00221A61074B0222DA60064B1C
:1036D00000229A61FFF7D6FC03E0034B00221A6137
:1036E000FFE700BF80BD00BFB806002080B500AF77
:1036F0003C4BDB6801333B4AD3603A4BDB68012B20
:1037000005D1384B00221A61FFF7F8F968E0354B14
:10371000DB68022B09D1334B1B68002B05D1314BE1
:1037200000221A61FFF78CFA5AE02E4BDB68022B5D
:1037300009D12C4B1B68012B05D12A4B00221A61A1
:10374000FFF7F2FA4CE0274BDB68022B0ED1254B3A
:103750001B68022B0AD1234B00221A61FFF764FB7E
:10376000204BDB6901331F4AD36139E01D4BDB6815
:10377000032B09D11B4BDB69012B05D1194B00220F
:103780001A61FFF7B7FB2BE0164BDB68022B0ED15B
:10379000144B1B68032B0AD1124B00221A61FFF74E
:1037A00071FC104B1B6A01330E4A136218E00D4B7B
:1037B000DB68032B09D10B4B1B6A012B05D1094B8D
:1037C00000221A61FFF79AFC0AE0064BDB68032B24
:1037D00006DD044B0322DA60024B00221A61FFE788
:1037E00000BF80BDB806002080B500AF054B9B78B8
:1037F000DBB2012B04D100F047F8024B00229A7093
:1038000000BF80BDCC07002080B500AF0D4B9B787A
:10381000DBB2002B14D10B4B01221A70094B002292
:103820005A7001224FF40051074802F0EFFAFEF7F8
:1038300061FB02210120FEF767FB0448FEF7B6FB9F
:1038400000BF80BDCC070020000402409C3401086A
:1038500080B500AF0A4B9B78DBB2002B0DD1084B33
:1038600001225A7000224FF40051064802F0CEFAAD
:1038700000F0CEF8024B01229A7000BF80BD00BF5D
:10388000CC0700200004024080B500AF564B002258
:103890001A70554B01225A70FEF72CFB02210120B1
:1038A000FEF732FB5148FEF781FB514B0022DA60F4
:1038B0004F4B00221A614E4B00221A604C4B0022E3
:1038C0005A614B4B00229A61494B0022DA61484B06
:1038D00000221A62464B00225A62454B00229A622D
:1038E000434B0022DA62424B00221A63404B002213
:1038F0005A633F4B4FF000025A653D4B4FF00002B8
:103900001A653B4B4FF00002DA65394B4FF000026D
:103910009A65384B00225A61374B00225A61374B67
:1039200000225A61364B4FF000029A60344B4FF040
:103930000002DA60324B4FF000021A61304B002275
:103940005A612F4B00229A612D4B0022DA612D4BD8
:103950004FF00002DA602B4B4FF000021A61294B46
:103960004FF000025A61274B4FF000021A60254BBE
:103970004FF000025A60234B4FF000029A601D4B3B
:103980005B6B1B684FF47A72DA621A4B5B6B4FF415
:103990007A72DA60184B5B6B1B684FF47A72DA62EA
:1039A000154B5B6B4FF47A72DA60144B5B6B1B68E0
:1039B0004FF47A72DA62114B5B6B4FF47A72DA6011
:1039C0000B48FEF7C9FB1048FEF7F2FB0C48FDF769
:1039D00053FCFEF78FFA02210120FEF795FA0B48FF
:1039E000FEF7E4FA00BF80BDCC070020AC3401082C
:1039F000B8060020AC020020E40200201C030020D6
:103A0000080600204C0600207C070020C034010876
:103A100080B500AF064B00221A70FEF76BFA022148
:103A20000120FEF771FA0348FEF7C0FA00BF80BD1F
:103A3000CC070020D034010880B582B000AF00234D
:103A40007B60164B5B6C154A43F480435364134B05
:103A50005B6C03F480437B607B6800233B600F4B0F
:103A60001B6C0E4A43F0805313640C4B1B6C03F029
:103A700080533B603B6800220F216FF0010001F092
:103A8000CAFB00220521012001F0C5FB012001F045
:103A9000DEFB00BF0837BD4680BD00BF00380240D6
:103AA00080B400AF00BFFDE780B400AF00BFFDE70A
:103AB00080B400AF00BFFDE780B400AF00BFFDE7FA
:103AC00080B400AF00BFFDE780B400AF00BFBD46CB
:103AD0005DF8047B704780B500AF00F045FD08F04D
:103AE00025FB0346012B01D009F01EF900BF80BD64
:103AF00080B500AF04F05CFB00BF80BD80B500AFB7
:103B0000102002F0B7F900BF80BD000080B500AF03
:103B1000024801F04FFD00BF80BD00BFCC0900206E
:103B200080B500AF024800F037FF00BF80BD00BF86
:103B30005403002080B500AF402002F09BF98020A4
:103B400002F098F94FF4007002F094F900BF80BDC4
:103B500080B500AF024805F0CCF800BF80BD00BFC3
:103B6000D407002080B500AF024805F0C2F800BFBE
:103B700080BD00BF1C08002080B500AF024805F0E2
:103B8000B8F800BF80BD00BF6408002080B500AF5A
:103B9000024805F0AEF800BF80BD00BFAC080020B1
:103BA00080B500AF024802F0D5FB00BF80BD00BF6A
:103BB0006406002080B500AF024802F01EFD00BF81
:103BC00080BD00BF6406002080B500AF024805F04C
:103BD000F1FC00BF80BD00BF8409002080B500AFAC
:103BE0004FF4806002F046F94FF4006002F042F9B1
:103BF0004FF4805002F03EF900BF80BD80B500AFA9
:103C0000024805F076F800BF80BD00BFF408002030
:103C100080B500AF024805F06CF800BF80BD00BF62
:103C20003C09002080B500AF024801F0C3FC00BF92
:103C300080BD00BF9C03002080B400AF0123184664
:103C4000BD465DF8047B704780B582B000AF7860F8
:103C500039600AF049FC034616221A604FF0FF3320
:103C600018460837BD4680BD80B582B000AF786089
:103C70004FF0FF317868FFF7E7FF00BFFDE780B541
:103C800086B000AFF860B9607A6000237B610AE01B
:103C9000AFF300800146BB685A1CBA60CAB21A7002
:103CA0007B6901337B617A697B689A42F0DB7B68D0
:103CB00018461837BD4680BD80B586B000AFF860A5
:103CC000B9607A6000237B6109E0BB685A1CBA6066
:103CD0001B781846AFF300807B6901337B617A69FA
:103CE0007B689A42F1DB7B6818461837BD4680BD79
:103CF00080B483B000AF78604FF0FF3318460C37C4
:103D0000BD465DF8047B704780B483B000AF786037
:103D100039603B684FF400525A60002318460C3754
:103D2000BD465DF8047B704780B483B000AF786017
:103D3000012318460C37BD465DF8047B704780B4FC
:103D400085B000AFF860B9607A6000231846143778
:103D5000BD465DF8047B704780B586B000AF7860E3
:103D6000144A154BD31A7B617B693B61134B1B686B
:103D7000002B02D1114B124A1A60104B1A687B6853
:103D800013443A699A4207D20AF0AEFB03460C226A
:103D90001A604FF0FF3309E0084B1B68FB60074BCC
:103DA0001A687B681344054A1360FB681846183785
:103DB000BD4680BD0000022000040000D0070020A6
:103DC000D054002080B400AF064BD3F88830054AA9
:103DD00043F47003C2F8883000BFBD465DF8047B31
:103DE000704700BF00ED00E080B586B000AF07F17E
:103DF000080300221A605A609A60DA603B4600228B
:103E00001A605A601E4B1F4A1A601D4BA7225A6047
:103E10001B4B00229A601A4B4FF47A72DA60184BEF
:103E200000221A61164B00225A61154B80229A61BA
:103E3000134804F06FFE0346002B01D0FEF786F90D
:103E40004FF48053BB6007F1080319460C4805F096
:103E500040F80346002B01D0FEF778F900233B60C1
:103E600000237B603B461946054805F067FA034688
:103E7000002B01D0FEF76AF900BF1837BD4680BDA0
:103E8000D40700200000014080B586B000AF07F1E4
:103E9000080300221A605A609A60DA603B460022EA
:103EA0001A605A601D4B4FF080421A601B4B532220
:103EB0005A601A4B00229A60184B4FF47A72DA60FB
:103EC000164B00221A61154B80229A61134804F0A8
:103ED00021FE0346002B01D0FEF738F94FF4805342
:103EE000BB6007F1080319460C4804F0F2FF0346D3
:103EF000002B01D0FEF72AF900233B6000237B60F2
:103F00003B461946054805F019FA0346002B01D037
:103F1000FEF71CF900BF1837BD4680BD1C08002005
:103F200080B586B000AF07F1080300221A605A601E
:103F30009A60DA603B4600221A605A601D4B1E4AA6
:103F40001A601C4B53225A601A4B00229A60194B7C
:103F50004FF47A72DA60174B00221A61154B8022F7
:103F60009A61144804F0D6FD0346002B01D0FEF7F9
:103F7000EDF84FF48053BB6007F1080319460D4874
:103F800004F0A7FF0346002B01D0FEF7DFF8002363
:103F90003B6000237B603B461946064805F0CEF99E
:103FA0000346002B01D0FEF7D1F800BF1837BD46FD
:103FB00080BD00BF640800200004004080B586B0CA
:103FC00000AF07F1080300221A605A609A60DA60B5
:103FD0003B4600221A605A601D4B1E4A1A601C4B59
:103FE00053225A601A4B00229A60194B4FF47A728E
:103FF000DA60174B00221A61154B80229A6114482F
:1040000004F088FD0346002B01D0FEF79FF84FF423
:104010008053BB6007F1080319460D4804F059FFAF
:104020000346002B01D0FEF791F800233B600023EC
:104030007B603B461946064805F080F90346002B95
:1040400001D0FEF783F800BF1837BD4680BD00BF22
:10405000AC0800200008004080B586B000AF07F132
:10406000080300221A605A609A60DA603B46002218
:104070001A605A601D4B1E4A1A601C4B53225A602C
:104080001A4B00229A60194B4FF47A72DA60174B80
:1040900000221A61154B80229A61144804F03AFDFF
:1040A0000346002B01D0FEF751F84FF48053BB605C
:1040B00007F1080319460D4804F00BFF0346002BD7
:1040C00001D0FEF743F800233B6000237B603B46B2
:1040D0001946064805F032F90346002B01D0FEF7D9
:1040E00035F800BF1837BD4680BD00BFF40800207A
:1040F000000C004080B582B000AF3B4600221A6041
:104100005A60154B154A1A60134B53225A60124BD2
:1041100000229A60104B4FF47A72DA600E4B8022C4
:104120009A610D4804F0F6FC0346002B01D0FEF71F
:104130000DF800233B6000237B603B461946064890
:1041400005F0FCF80346002B01D0FDF7FFFF00BF90
:104150000837BD4680BD00BF3C090020001000406C
:1041600080B588B000AF78607B681B68544A934282
:1041700016D10023FB61534B5B6C524A43F00103A1
:104180005364504B5B6C03F00103FB61FB6900223D
:104190000521182001F03FF8182001F058F88AE0B6
:1041A0007B681B68B3F1804F16D10023BB61454B80
:1041B0001B6C444A43F001031364424B1B6C03F035
:1041C0000103BB61BB69002205211C2001F023F81B
:1041D0001C2001F03CF86EE07B681B683A4A934271
:1041E00016D100237B61374B1B6C364A43F0020328
:1041F0001364344B1B6C03F002037B617B69002268
:1042000005211D2001F007F81D2001F020F852E0E3
:104210007B681B682D4A934216D100233B61294BD2
:104220001B6C284A43F004031364264B1B6C03F0F9
:1042300004033B613B69002205211E2000F0EBFFD7
:104240001E2001F004F836E07B681B68204A934288
:1042500016D10023FB601B4B1B6C1A4A43F008036A
:104260001364184B1B6C03F00803FB60FB6800220F
:104270000521322000F0CFFF322000F0E8FF1AE0E5
:104280007B681B68134A934215D10023BB600D4B1A
:104290001B6C0C4A43F0100313640A4B1B6C03F0B5
:1042A0001003BB60BB6800220521362000F0B3FF7D
:1042B000362000F0CCFF00BF2037BD4680BD00BFD8
:1042C00000000140003802400004004000080040A7
:1042D000000C00400010004080B500AF114B124AA6
:1042E0001A60104B4FF416525A600E4B00229A601F
:1042F0000C4B0022DA600B4B00221A61094B0C2296
:104300005A61084B00229A61064B0022DA61054887
:1043100005F0A4F80346002B01D0FDF717FF00BFFE
:1043200080BD00BF840900200044004080B582B0F9
:1043300000AF00237B600C4B1B6B0B4A43F4001354
:104340001363094B1B6B03F400137B607B68002233
:104350000521102000F05FFF102000F078FF00BF63
:104360000837BD4680BD00BF0038024080B58AB026
:1043700000AF786007F1140300221A605A609A6057
:10438000DA601A617B681B68344A934262D1002369
:104390003B61334B1B6C324A43F400331364304BA4
:1043A0001B6C03F400333B613B690023FB602C4B27
:1043B0001B6B2B4A43F008031363294B1B6B03F061
:1043C0000803FB60FB6860237B610223BB61002361
:1043D000FB6103233B6207237B6207F11403194649
:1043E000204801F05FFB204B204A1A601E4B4FF023
:1043F00000625A601C4B00229A601B4B0022DA605C
:10440000194B4FF480621A61174B00225A61164B08
:1044100000229A61144B4FF48072DA61124B002231
:104420001A62114B00225A620F4800F02BFF03461C
:10443000002B01D0FDF78AFE7B680B4ADA630A4A3B
:104440007B68936300220521262000F0E4FE2620ED
:1044500000F0FDFE00BF2837BD4680BD004400408F
:1044600000380240000C0240CC0900208860024065
:10447000DFF834D0FFF7A6FC0C480D490D4A0023A5
:1044800002E0D458C4500433C4188C42F9D30A4A09
:104490000A4C002301E013600432A242FBD30AF06D
:1044A00029F8FDF798FD7047000002200000002069
:1044B00090020020E03A010890020020CC54002035
:1044C000FEE7000080B500AF0E4B1B680D4A43F4B9
:1044D000007313600B4B1B680A4A43F4806313603C
:1044E000084B1B68074A43F480731360032000F0F5
:1044F00087FE0F2000F008F8FFF79EFA0023184609
:1045000080BD00BF003C024080B582B000AF786043
:10451000124B1A68124B1B7819464FF47A73B3FB8F
:10452000F1F3B2FBF3F3184600F09FFE0346002BB5
:1045300001D001230EE07B680F2B0AD80022796896
:104540004FF0FF3000F067FE064A7B6813600023DF
:1045500000E0012318460837BD4680BDA8000020B2
:10456000B0000020AC00002080B400AF064B1B78E8
:104570001A46064B1B681344044A136000BFBD462D
:104580005DF8047B704700BFB00000202C0A0020BB
:1045900080B400AF034B1B681846BD465DF8047B32
:1045A000704700BF2C0A002080B584B000AF78604F
:1045B000FFF7EEFFB8607B68FB60FB68B3F1FF3F7D
:1045C00005D00A4B1B781A46FB681344FB6000BFFA
:1045D000FFF7DEFF0246BB68D31AFA689A42F7D8A3
:1045E00000BF00BF1037BD4680BD00BFB000002037
:1045F00080B584B000AF78600023FB737B68002B2C
:1046000001D1012333E07B681B6C002B09D1786852
:10461000FCF71AFF7B6800225A647B68002283F84B
:104620003C207B681B6C03F01003002B18D17B68C7
:104630001B6C23F4885323F0020343F002027B68CF
:104640001A64786800F006FC7B6800225A647B6874
:104650001B6C23F0030343F001027B681A6401E042
:104660000123FB737B68002283F83C20FB7B184608
:104670001037BD4680BD000080B485B000AF7860C3
:104680000023BB607B6893F83C30012B01D10223EF
:10469000B2E07B68012283F83C207B681B689B6842
:1046A00003F00103012B18D07B681B689A687B68B4
:1046B0001B6842F001029A60524B1B68524AA2FBEF
:1046C00003239A0C13465B001344BB6002E0BB68F3
:1046D000013BBB60BB68002BF9D17B681B689B6802
:1046E00003F00103012B7AD17B681B6C23F4E06398
:1046F00023F0010343F480727B681A647B681B68B3
:104700005B6803F48063002B07D07B681B6C23F489
:10471000405343F480527B681A647B681B6C03F43B
:104720008053B3F5805F06D17B685B6C23F0060293
:104730007B685A6402E07B6800225A647B6800222E
:1047400083F83C20314BFB607B681B686FF02202D2
:104750001A60FB685B6803F01F03002B2AD17B689B
:104760001B682B4A934215D07B681B68294A9342E9
:1047700005D1264B5B6803F01F03002B0AD07B6832
:104780001B68254A934236D1204B5B6803F0100327
:10479000002B30D17B681B689B6803F04053002BD3
:1047A00029D17B681B689A687B681B6842F080424D
:1047B0009A6020E07B681B68154A93421BD17B6896
:1047C0001B689B6803F04053002B14D17B681B6867
:1047D0009A687B681B6842F080429A600BE07B68B5
:1047E0001B6C43F010027B681A647B685B6C43F0BF
:1047F00001027B685A64002318461437BD465DF8F1
:10480000047B7047A800002083DE1B430023014087
:1048100000200140002101400022014080B483B00B
:1048200000AF78607B6893F83C30012B01D1022304
:1048300021E07B68012283F83C207B681B689A6832
:104840007B681B6822F001029A607B681B689B688A
:1048500003F00103002B09D17B681B6C23F4885300
:1048600023F0010343F001027B681A647B68002295
:1048700083F83C20002318460C37BD465DF8047BC6
:10488000704780B584B000AF786039600023FB606A
:104890007B681B689B6803F48063B3F5806F13D15A
:1048A0007B681B689B6803F48073B3F5807F0BD132
:1048B0007B681B6C43F020027B681A647B680022D3
:1048C00083F83C20012363E0FFF762FEF86021E0FB
:1048D0003B68B3F1FF3F1DD03B68002B07D0FFF7CB
:1048E00057FE0246FB68D31A3A689A4212D27B6896
:1048F0001B681B6803F00203022B0BD07B681B6C48
:1049000043F004027B681A647B68002283F83C2031
:1049100003233DE07B681B681B6803F00203022B46
:10492000D6D17B681B686FF012021A607B681B6C23
:1049300043F400727B681A647B681B689B6803F011
:104940004053002B23D17B681B7E002B1FD17B683B
:104950001B68DB6A03F47003002B06D07B681B68BE
:104960009B6803F48063002B11D17B681B6C23F4DC
:1049700080727B681A647B681B6C03F48053002B85
:1049800005D17B681B6C43F001027B681A6400232D
:1049900018461037BD4680BD80B586B000AF786040
:1049A00000237B6100233B617B681B681B68FB6005
:1049B0007B681B685B68BB60FB6803F002037B617C
:1049C000BB6803F020033B617B69002B49D03B6946
:1049D000002B46D07B681B6C03F01003002B05D125
:1049E0007B681B6C43F400727B681A647B681B68ED
:1049F0009B6803F04053002B2BD17B681B7E002B60
:104A000027D17B681B68DB6A03F47003002B06D098
:104A10007B681B689B6803F48063002B19D17B685B
:104A20001B685A687B681B6822F020025A607B680A
:104A30001B6C23F480727B681A647B681B6C03F424
:104A40008053002B05D17B681B6C43F001027B680F
:104A50001A64786800F0BDF87B681B686FF012027A
:104A60001A60FB6803F004037B61BB6803F08003FA
:104A70003B617B69002B57D03B69002B54D07B688E
:104A80001B6C03F01003002B05D17B681B6C43F4F7
:104A900000527B681A647B681B689B6803F44013B0
:104AA000002B39D17B681B689B6B03F44013002BF0
:104AB00006D07B681B689B6803F48063002B2BD1B6
:104AC0007B681B685B6803F48063002B24D17B68E0
:104AD0001B689B6803F04053002B1DD17B681B7E35
:104AE000002B19D17B681B685A687B681B6822F011
:104AF00080025A607B681B6C23F480527B681A64C6
:104B00007B681B6C03F48073002B05D17B681B6CE6
:104B100043F001027B681A64786800F097FA7B68BA
:104B20001B686FF00C021A60FB6803F001037B61E5
:104B3000BB6803F040033B617B69002B17D03B69E6
:104B4000002B14D07B681B681B6803F00103012B4A
:104B50000DD17B681B6C43F480327B681A647868E3
:104B600000F041F87B681B686FF001021A60FB6877
:104B700003F020037B61BB6803F080633B617B69CA
:104B8000002B15D03B69002B12D07B685B6C43F087
:104B900002027B685A647B681B686FF020021A600F
:104BA000786800F02AF87B681B686FF020021A60B2
:104BB00000BF1837BD4680BD80B483B000AF7860B9
:104BC0007B681B68DB6C18460C37BD465DF8047BC0
:104BD000704780B483B000AF786000BF0C37BD462B
:104BE0005DF8047B704780B483B000AF786000BF8D
:104BF0000C37BD465DF8047B704780B483B000AFCE
:104C0000786000BF0C37BD465DF8047B704700003C
:104C100080B485B000AF786039600023BB607B68EA
:104C200093F83C30012B01D1022305E17B6801227E
:104C300083F83C203B681B68092B25D97B681B68DF
:104C4000D9683B681B689BB21A4613465B00134445
:104C50001E3B072202FA03F3DA437B681B680A4013
:104C6000DA607B681B68D9683B689A683B681B6898
:104C70009BB2184603465B0003441E3B9A407B6888
:104C80001B680A43DA6022E07B681B6819693B688D
:104C90001B689BB21A4613465B001344072202FAB4
:104CA00003F3DA437B681B680A401A617B681B6860
:104CB00019693B689A683B681B689BB218460346B3
:104CC0005B0003449A407B681B680A431A613B6897
:104CD0005B68062B24D87B681B68596B3B685A6855
:104CE00013469B001344053B1F2202FA03F3DA43E9
:104CF0007B681B680A405A637B681B68596B3B687A
:104D00001B689BB218463B685A6813469B001344C5
:104D1000053B00FA03F27B681B680A435A634CE0C8
:104D20003B685B680C2B24D87B681B68196B3B685D
:104D30005A6813469B001344233B1F2202FA03F3D5
:104D4000DA437B681B680A401A637B681B68196B2F
:104D50003B681B689BB218463B685A6813469B0029
:104D60001344233B00FA03F27B681B680A431A636F
:104D700023E07B681B68D96A3B685A6813469B002E
:104D80001344413B1F2202FA03F3DA437B681B689A
:104D90000A40DA627B681B68D96A3B681B689BB271
:104DA00018463B685A6813469B001344413B00FA7F
:104DB00003F27B681B680A43DA62224BFB607B6864
:104DC0001B68214A934209D13B681B68122B05D10D
:104DD000FB685B6843F48002FB685A607B681B6871
:104DE000194A934223D13B681B68102B03D03B68C0
:104DF0001B68112B1BD1FB685B6843F40002FB6846
:104E00005A603B681B68102B11D1104B1B68104A6D
:104E1000A2FB03239A0C13469B0013445B00BB6068
:104E200002E0BB68013BBB60BB68002BF9D17B682B
:104E3000002283F83C20002318461437BD465DF855
:104E4000047B70470023014000200140A80000209F
:104E500083DE1B4380B485B000AF7860794BFB6084
:104E6000FB685B6823F44032FB685A60FB685A6851
:104E70007B685B681A43FB685A607B681B685A68EA
:104E80007B681B6822F480725A607B681B685968D3
:104E90007B681B691A027B681B680A435A607B683F
:104EA0001B685A687B681B6822F040725A607B68F6
:104EB0001B6859687B689A687B681B680A435A605C
:104EC0007B681B689A687B681B6822F400629A60A2
:104ED0007B681B6899687B68DA687B681B680A4393
:104EE0009A607B689B6A584A934222D07B681B6811
:104EF0009A687B681B6822F070629A607B681B6806
:104F000099687B689A6A7B681B680A439A607B6829
:104F10001B689A687B681B6822F040529A607B6825
:104F20001B6899687B68DA6A7B681B680A439A6029
:104F30000FE07B681B689A687B681B6822F07062D0
:104F40009A607B681B689A687B681B6822F04052F5
:104F50009A607B681B689A687B681B6822F0020273
:104F60009A607B681B6899687B681B7E5A007B6827
:104F70001B680A439A607B6893F82030002B1BD093
:104F80007B681B685A687B681B6842F400625A6041
:104F90007B681B685A687B681B6822F460425A6011
:104FA0007B681B6859687B685B6A013B5A037B68B6
:104FB0001B680A435A6007E07B681B685A687B6875
:104FC0001B6822F400625A607B681B68DA6A7B689F
:104FD0001B6822F47002DA627B681B68D96A7B68FE
:104FE000DB69013B1A057B681B680A43DA627B6850
:104FF0001B689A687B681B6822F400729A607B6861
:105000001B6899687B6893F830305A027B681B688C
:105010000A439A607B681B689A687B681B6822F465
:1050200080629A607B681B6899687B685B699A02FA
:105030007B681B680A439A6000BF1437BD465DF861
:10504000047B7047002301400100000F80B483B04F
:1050500000AF786000BF0C37BD465DF8047B704739
:1050600080B485B000AF78607B6803F00703FB6015
:105070000C4BDB68BB60BA684FF6FF031340BB60A4
:10508000FB681A02BB68134343F0BF6343F4003369
:10509000BB60044ABB68D36000BF1437BD465DF8EF
:1050A000047B704700ED00E080B400AF044BDB6888
:1050B0001B0A03F007031846BD465DF8047B7047E2
:1050C00000ED00E080B483B000AF0346FB7197F9B8
:1050D0000730002B0BDBFB7903F01F02074997F920
:1050E00007305B09012000FA02F241F8232000BFDB
:1050F0000C37BD465DF8047B704700BF00E100E05F
:1051000080B483B000AF03463960FB7197F9073074
:10511000002B0ADB3B68DAB20C4997F90730120121
:10512000D2B20B4483F800230AE03B68DAB20849A4
:10513000FB7903F00F03043B1201D2B20B441A7641
:1051400000BF0C37BD465DF8047B704700E100E00E
:1051500000ED00E080B489B000AFF860B9607A601B
:10516000FB6803F00703FB61FB69C3F10703042B32
:1051700028BF0423BB61FB690433062B02D9FB69FA
:10518000033B00E000237B614FF0FF32BB6902FA72
:1051900003F3DA43BB681A407B699A404FF0FF3152
:1051A0007B6901FA03F3D9437B680B40134318462C
:1051B0002437BD465DF8047B7047000080B582B09F
:1051C00000AF78607B68013BB3F1807F01D301239E
:1051D0000FE00A4A7B68013B53600F214FF0FF301C
:1051E000FFF78EFF054B00229A60044B07221A60DE
:1051F000002318460837BD4680BD00BF10E000E020
:1052000080B582B000AF78607868FFF729FF00BFF3
:105210000837BD4680BD80B586B000AF0346B96093
:105220007A60FB7300237B61FFF73EFF78617A6849
:10523000B9687869FFF78EFF024697F90F3011467B
:105240001846FFF75DFF00BF1837BD4680BD80B52B
:1052500082B000AF0346FB7197F907301846FFF79D
:1052600031FF00BF0837BD4680BD80B582B000AFBA
:1052700078607868FFF7A2FF034618460837BD46F6
:1052800080BD000080B586B000AF786000237B61F0
:10529000FFF77EF938617B68002B01D1012399E08B
:1052A0007B68022283F835207B68002283F8342053
:1052B0007B681B681A687B681B6822F001021A6011
:1052C0000FE0FFF765F902463B69D31A052B08D9B1
:1052D0007B6820225A657B68032283F835200323EC
:1052E00078E07B681B681B6803F00103002BE8D1A2
:1052F0007B681B681B687B617A69384B13407B6154
:105300007B685A687B689B681A437B68DB681A4332
:105310007B681B691A437B685B691A437B689B69DE
:105320001A437B68DB691A437B681B6A13437A69FB
:1053300013437B617B685B6A042B07D17B68DA6A65
:105340007B681B6B13437A6913437B617B681B6823
:105350007A691A607B681B685B697B617B6923F0F3
:1053600007037B617B685B6A7A6913437B617B68B7
:105370005B6A042B17D17B689B6A7A6913437B6154
:105380007B68DB6A002B0ED0786800F00FFB0346C9
:10539000002B08D07B6840225A657B68012283F885
:1053A0003520012316E07B681B687A695A617868AA
:1053B00000F0C6FA0346FB607B68DB6D3F229A4033
:1053C000FB689A607B6800225A657B68012283F83B
:1053D0003520002318461837BD4680BD3F8010F0A9
:1053E00080B586B000AFF860B9607A603B6000239A
:1053F000FB75FB689B6D3B61FB6893F83430012BB8
:1054000001D1022340E0FB68012283F83420FB68CD
:1054100093F83530DBB2012B2FD1FB68022283F8E1
:105420003520FB6800225A653B687A68B968F868DD
:1054300000F058FAFB68DB6D3F229A403B699A60A6
:10544000FB681B681A68FB681B6842F016021A604A
:10545000FB681B6C002B07D0FB681B681A68FB6895
:105460001B6842F008021A60FB681B681A68FB6838
:105470001B6842F001021A6005E0FB68002283F815
:1054800034200223FB75FB7D18461837BD4680BDCE
:1054900080B584B000AF78607B689B6DFB60FFF7E0
:1054A00077F8B8607B6893F83530DBB2022B08D010
:1054B0007B6880225A657B68002283F834200123B0
:1054C00052E07B681B681A687B681B6822F0160232
:1054D0001A607B681B685A697B681B6822F080022F
:1054E0005A617B681B6C002B03D17B689B6C002B83
:1054F00007D07B681B681A687B681B6822F008026B
:105500001A607B681B681A687B681B6822F00102BE
:105510001A6013E0FFF73CF80246BB68D31A052B6C
:105520000CD97B6820225A657B68032283F83520DA
:105530007B68002283F83420032315E07B681B6816
:105540001B6803F00103002BE4D17B68DB6D3F2275
:105550009A40FB689A607B68012283F835207B685B
:10556000002283F83420002318461037BD4680BD42
:1055700080B483B000AF78607B6893F83530DBB2DD
:10558000022B04D07B6880225A6501230CE07B68E3
:10559000052283F835207B681B681A687B681B68C6
:1055A00022F001021A60002318460C37BD465DF850
:1055B000047B704780B586B000AF78600023BB6085
:1055C0008E4B1B688E4AA2FB03239B0A7B617B6880
:1055D0009B6D3B613B691B68FB607B68DB6D082250
:1055E0009A40FB681340002B1AD07B681B681B682D
:1055F00003F00403002B13D07B681B681A687B68D8
:105600001B6822F004021A607B68DB6D08229A4056
:105610003B699A607B685B6D43F001027B685A6569
:105620007B68DB6D01229A40FB681340002B12D08F
:105630007B681B685B6903F08003002B0BD07B68E1
:10564000DB6D01229A403B699A607B685B6D43F099
:1056500002027B685A657B68DB6D04229A40FB6816
:105660001340002B12D07B681B681B6803F00203F9
:10567000002B0BD07B68DB6D04229A403B699A605B
:105680007B685B6D43F004027B685A657B68DB6D69
:1056900010229A40FB681340002B43D07B681B68A4
:1056A0001B6803F00803002B3CD07B68DB6D1022E5
:1056B0009A403B699A607B681B681B6803F48023EF
:1056C000002B18D07B681B681B6803F40023002B99
:1056D00008D17B681B6C002B24D07B681B6C78681E
:1056E00098471FE07B689B6C002B1BD07B689B6CF2
:1056F0007868984716E07B681B681B6803F4807322
:10570000002B07D17B681B681A687B681B6822F036
:1057100008021A607B681B6C002B03D07B681B6C33
:10572000786898477B68DB6D20229A40FB681340BD
:10573000002B00F08F807B681B681B6803F0100350
:10574000002B00F087807B68DB6D20229A403B694C
:105750009A607B6893F83530DBB2052B36D17B68D5
:105760001B681A687B681B6822F016021A607B6847
:105770001B685A697B681B6822F080025A617B684B
:105780001B6C002B03D17B689B6C002B07D07B68C4
:105790001B681A687B681B6822F008021A607B6825
:1057A000DB6D3F229A403B699A607B68012283F857
:1057B00035207B68002283F834207B681B6D002B2A
:1057C0007ED07B681B6D7868984779E07B681B68A2
:1057D0001B6803F48023002B1DD07B681B681B68AB
:1057E00003F40023002B0DD17B685B6C002B31D0C0
:1057F0007B685B6C786898472CE000BFA8000020AD
:10580000B5814E1B7B68DB6B002B23D07B68DB6B89
:10581000786898471EE07B681B681B6803F48073F8
:10582000002B0FD17B681B681A687B681B6822F00D
:1058300010021A607B68012283F835207B68002201
:1058400083F834207B68DB6B002B03D07B68DB6B39
:10585000786898477B685B6D002B32D07B685B6D06
:1058600003F00103002B22D07B68052283F835204A
:105870007B681B681A687B681B6822F001021A604B
:10588000BB680133BB607A699A4207D37B681B68A7
:105890001B6803F00103002BF2D100E000BF7B681E
:1058A000012283F835207B68002283F834207B684E
:1058B000DB6C002B05D07B68DB6C7868984700E0D8
:1058C00000BF1837BD4680BD80B483B000AF78609C
:1058D0007B6893F83530DBB218460C37BD465DF86F
:1058E000047B704780B485B000AFF860B9607A601F
:1058F0003B60FB681B681A68FB681B6822F4802207
:105900001A60FB681B683A685A60FB689B68402B0A
:1059100008D1FB681B687A689A60FB681B68BA68E4
:10592000DA6007E0FB681B68BA689A60FB681B686E
:105930007A68DA6000BF1437BD465DF8047B7047B3
:1059400080B485B000AF78607B681B68DBB2103B29
:10595000144AA2FB03231B09FB60134AFB68134490
:105960001B781A467B68DA65FB68032B09D97B68CC
:105970001B6823F47F7323F003031A1D7B689A6569
:1059800007E07B681B6823F47F7323F003037A68C6
:1059900093657B689B6D18461437BD465DF8047BA4
:1059A000704700BFABAAAAAAD035010880B485B061
:1059B00000AF78600023FB737B689B6ABB607B68E9
:1059C0009B69002B1FD1BB68032B56D801A252F84C
:1059D00023F000BFE5590008F7590008E559000811
:1059E0007B5A00087B68DB6A03F08073002B46D08B
:1059F0000123FB7343E07B68DB6AB3F1C07F40D1D6
:105A00000123FB733DE07B689B69B3F5005F21D107
:105A1000BB68032B37D801A252F823F02D5A000897
:105A2000335A00082D5A0008455A00080123FB7319
:105A300030E07B68DB6A03F08073002B25D0012304
:105A4000FB7322E07B68DB6AB3F1C07F1FD10123C7
:105A5000FB731CE0BB68022B03D9BB68032B03D08C
:105A600018E00123FB7315E07B68DB6A03F08073A9
:105A7000002B0ED00123FB730BE000BF0AE000BF38
:105A800008E000BF06E000BF04E000BF02E000BF86
:105A900000E000BFFB7B18461437BD465DF8047B71
:105AA000704700BF80B489B000AF786039600023D0
:105AB0007B6100233B610023BB610023FB616BE141
:105AC0000122FB6902FA03F37B613B681B687A6978
:105AD00013403B613A697B699A4240F05A813B68C6
